{
    "_format": "hh-sol-artifact-1",
    "contractName": "Domains",
    "sourceName": "contracts/Domains.sol",
    "abi": [
        {
            "inputs": [
                {
                    "internalType": "string",
                    "name": "_tld",
                    "type": "string"
                }
            ],
            "stateMutability": "payable",
            "type": "constructor"
        },
        {
            "anonymous": false,
            "inputs": [
                {
                    "indexed": true,
                    "internalType": "address",
                    "name": "owner",
                    "type": "address"
                },
                {
                    "indexed": true,
                    "internalType": "address",
                    "name": "approved",
                    "type": "address"
                },
                {
                    "indexed": true,
                    "internalType": "uint256",
                    "name": "tokenId",
                    "type": "uint256"
                }
            ],
            "name": "Approval",
            "type": "event"
        },
        {
            "anonymous": false,
            "inputs": [
                {
                    "indexed": true,
                    "internalType": "address",
                    "name": "owner",
                    "type": "address"
                },
                {
                    "indexed": true,
                    "internalType": "address",
                    "name": "operator",
                    "type": "address"
                },
                {
                    "indexed": false,
                    "internalType": "bool",
                    "name": "approved",
                    "type": "bool"
                }
            ],
            "name": "ApprovalForAll",
            "type": "event"
        },
        {
            "anonymous": false,
            "inputs": [
                {
                    "indexed": true,
                    "internalType": "address",
                    "name": "from",
                    "type": "address"
                },
                {
                    "indexed": true,
                    "internalType": "address",
                    "name": "to",
                    "type": "address"
                },
                {
                    "indexed": true,
                    "internalType": "uint256",
                    "name": "tokenId",
                    "type": "uint256"
                }
            ],
            "name": "Transfer",
            "type": "event"
        },
        {
            "inputs": [
                {
                    "internalType": "address",
                    "name": "to",
                    "type": "address"
                },
                {
                    "internalType": "uint256",
                    "name": "tokenId",
                    "type": "uint256"
                }
            ],
            "name": "approve",
            "outputs": [],
            "stateMutability": "nonpayable",
            "type": "function"
        },
        {
            "inputs": [
                {
                    "internalType": "address",
                    "name": "owner",
                    "type": "address"
                }
            ],
            "name": "balanceOf",
            "outputs": [
                {
                    "internalType": "uint256",
                    "name": "",
                    "type": "uint256"
                }
            ],
            "stateMutability": "view",
            "type": "function"
        },
        {
            "inputs": [
                {
                    "internalType": "string",
                    "name": "",
                    "type": "string"
                }
            ],
            "name": "domains",
            "outputs": [
                {
                    "internalType": "address",
                    "name": "",
                    "type": "address"
                }
            ],
            "stateMutability": "view",
            "type": "function"
        },
        {
            "inputs": [
                {
                    "internalType": "string",
                    "name": "name",
                    "type": "string"
                }
            ],
            "name": "getAddress",
            "outputs": [
                {
                    "internalType": "address",
                    "name": "",
                    "type": "address"
                }
            ],
            "stateMutability": "view",
            "type": "function"
        },
        {
            "inputs": [
                {
                    "internalType": "uint256",
                    "name": "tokenId",
                    "type": "uint256"
                }
            ],
            "name": "getApproved",
            "outputs": [
                {
                    "internalType": "address",
                    "name": "",
                    "type": "address"
                }
            ],
            "stateMutability": "view",
            "type": "function"
        },
        {
            "inputs": [
                {
                    "internalType": "string",
                    "name": "attr",
                    "type": "string"
                }
            ],
            "name": "getRecord",
            "outputs": [
                {
                    "internalType": "string",
                    "name": "",
                    "type": "string"
                }
            ],
            "stateMutability": "view",
            "type": "function"
        },
        {
            "inputs": [
                {
                    "internalType": "address",
                    "name": "owner",
                    "type": "address"
                },
                {
                    "internalType": "address",
                    "name": "operator",
                    "type": "address"
                }
            ],
            "name": "isApprovedForAll",
            "outputs": [
                {
                    "internalType": "bool",
                    "name": "",
                    "type": "bool"
                }
            ],
            "stateMutability": "view",
            "type": "function"
        },
        {
            "inputs": [],
            "name": "name",
            "outputs": [
                {
                    "internalType": "string",
                    "name": "",
                    "type": "string"
                }
            ],
            "stateMutability": "view",
            "type": "function"
        },
        {
            "inputs": [
                {
                    "internalType": "uint256",
                    "name": "tokenId",
                    "type": "uint256"
                }
            ],
            "name": "ownerOf",
            "outputs": [
                {
                    "internalType": "address",
                    "name": "",
                    "type": "address"
                }
            ],
            "stateMutability": "view",
            "type": "function"
        },
        {
            "inputs": [
                {
                    "internalType": "string",
                    "name": "name",
                    "type": "string"
                }
            ],
            "name": "price",
            "outputs": [
                {
                    "internalType": "uint256",
                    "name": "",
                    "type": "uint256"
                }
            ],
            "stateMutability": "pure",
            "type": "function"
        },
        {
            "inputs": [
                {
                    "internalType": "string",
                    "name": "",
                    "type": "string"
                }
            ],
            "name": "records",
            "outputs": [
                {
                    "internalType": "string",
                    "name": "",
                    "type": "string"
                }
            ],
            "stateMutability": "view",
            "type": "function"
        },
        {
            "inputs": [
                {
                    "internalType": "string",
                    "name": "name",
                    "type": "string"
                }
            ],
            "name": "register",
            "outputs": [],
            "stateMutability": "payable",
            "type": "function"
        },
        {
            "inputs": [
                {
                    "internalType": "address",
                    "name": "from",
                    "type": "address"
                },
                {
                    "internalType": "address",
                    "name": "to",
                    "type": "address"
                },
                {
                    "internalType": "uint256",
                    "name": "tokenId",
                    "type": "uint256"
                }
            ],
            "name": "safeTransferFrom",
            "outputs": [],
            "stateMutability": "nonpayable",
            "type": "function"
        },
        {
            "inputs": [
                {
                    "internalType": "address",
                    "name": "from",
                    "type": "address"
                },
                {
                    "internalType": "address",
                    "name": "to",
                    "type": "address"
                },
                {
                    "internalType": "uint256",
                    "name": "tokenId",
                    "type": "uint256"
                },
                {
                    "internalType": "bytes",
                    "name": "_data",
                    "type": "bytes"
                }
            ],
            "name": "safeTransferFrom",
            "outputs": [],
            "stateMutability": "nonpayable",
            "type": "function"
        },
        {
            "inputs": [
                {
                    "internalType": "address",
                    "name": "operator",
                    "type": "address"
                },
                {
                    "internalType": "bool",
                    "name": "approved",
                    "type": "bool"
                }
            ],
            "name": "setApprovalForAll",
            "outputs": [],
            "stateMutability": "nonpayable",
            "type": "function"
        },
        {
            "inputs": [
                {
                    "internalType": "string",
                    "name": "name",
                    "type": "string"
                },
                {
                    "internalType": "string",
                    "name": "attr",
                    "type": "string"
                },
                {
                    "internalType": "string",
                    "name": "record",
                    "type": "string"
                }
            ],
            "name": "setRecord",
            "outputs": [],
            "stateMutability": "nonpayable",
            "type": "function"
        },
        {
            "inputs": [
                {
                    "internalType": "bytes4",
                    "name": "interfaceId",
                    "type": "bytes4"
                }
            ],
            "name": "supportsInterface",
            "outputs": [
                {
                    "internalType": "bool",
                    "name": "",
                    "type": "bool"
                }
            ],
            "stateMutability": "view",
            "type": "function"
        },
        {
            "inputs": [],
            "name": "symbol",
            "outputs": [
                {
                    "internalType": "string",
                    "name": "",
                    "type": "string"
                }
            ],
            "stateMutability": "view",
            "type": "function"
        },
        {
            "inputs": [],
            "name": "tld",
            "outputs": [
                {
                    "internalType": "string",
                    "name": "",
                    "type": "string"
                }
            ],
            "stateMutability": "view",
            "type": "function"
        },
        {
            "inputs": [
                {
                    "internalType": "uint256",
                    "name": "tokenId",
                    "type": "uint256"
                }
            ],
            "name": "tokenURI",
            "outputs": [
                {
                    "internalType": "string",
                    "name": "",
                    "type": "string"
                }
            ],
            "stateMutability": "view",
            "type": "function"
        },
        {
            "inputs": [
                {
                    "internalType": "address",
                    "name": "from",
                    "type": "address"
                },
                {
                    "internalType": "address",
                    "name": "to",
                    "type": "address"
                },
                {
                    "internalType": "uint256",
                    "name": "tokenId",
                    "type": "uint256"
                }
            ],
            "name": "transferFrom",
            "outputs": [],
            "stateMutability": "nonpayable",
            "type": "function"
        }
    ],
    "bytecode": "0x6080604052604051806108a0016040528061086b81526020016200497361086b9139600990805190602001906200003892919062000287565b506040518060400160405280600d81526020017f3c2f746578743e3c2f7376673e00000000000000000000000000000000000000815250600a90805190602001906200008692919062000287565b50604051620051de380380620051de8339818101604052810190620000ac9190620004d4565b6040518060400160405280600f81526020017f3530204e616d65205365727669636500000000000000000000000000000000008152506040518060400160405280600481526020017f35304e530000000000000000000000000000000000000000000000000000000081525081600090805190602001906200013092919062000287565b5080600190805190602001906200014992919062000287565b50505080600890805190602001906200016492919062000287565b50620001b16040518060400160405280601881526020017f2573206e616d652073657276696365206465706c6f796564000000000000000081525082620001b860201b6200150e1760201c565b5062000622565b6200025a8282604051602401620001d192919062000582565b6040516020818303038152906040527f4b5c4277000000000000000000000000000000000000000000000000000000007bffffffffffffffffffffffffffffffffffffffffffffffffffffffff19166020820180517bffffffffffffffffffffffffffffffffffffffffffffffffffffffff83818316178352505050506200025e60201b60201c565b5050565b60008151905060006a636f6e736f6c652e6c6f679050602083016000808483855afa5050505050565b8280546200029590620005ec565b90600052602060002090601f016020900481019282620002b9576000855562000305565b82601f10620002d457805160ff191683800117855562000305565b8280016001018555821562000305579182015b8281111562000304578251825591602001919060010190620002e7565b5b50905062000314919062000318565b5090565b5b808211156200033357600081600090555060010162000319565b5090565b6000604051905090565b600080fd5b600080fd5b600080fd5b600080fd5b6000601f19601f8301169050919050565b7f4e487b7100000000000000000000000000000000000000000000000000000000600052604160045260246000fd5b620003a08262000355565b810181811067ffffffffffffffff82111715620003c257620003c162000366565b5b80604052505050565b6000620003d762000337565b9050620003e5828262000395565b919050565b600067ffffffffffffffff82111562000408576200040762000366565b5b620004138262000355565b9050602081019050919050565b60005b838110156200044057808201518184015260208101905062000423565b8381111562000450576000848401525b50505050565b60006200046d6200046784620003ea565b620003cb565b9050828152602081018484840111156200048c576200048b62000350565b5b6200049984828562000420565b509392505050565b600082601f830112620004b957620004b86200034b565b5b8151620004cb84826020860162000456565b91505092915050565b600060208284031215620004ed57620004ec62000341565b5b600082015167ffffffffffffffff8111156200050e576200050d62000346565b5b6200051c84828501620004a1565b91505092915050565b600081519050919050565b600082825260208201905092915050565b60006200054e8262000525565b6200055a818562000530565b93506200056c81856020860162000420565b620005778162000355565b840191505092915050565b600060408201905081810360008301526200059e818562000541565b90508181036020830152620005b4818462000541565b90509392505050565b7f4e487b7100000000000000000000000000000000000000000000000000000000600052602260045260246000fd5b600060028204905060018216806200060557607f821691505b602082108114156200061c576200061b620005bd565b5b50919050565b61434180620006326000396000f3fe60806040526004361061012a5760003560e01c80636352211e116100ab578063b88d4fde1161006f578063b88d4fde14610428578063bf40fac114610451578063c87b56dd1461048e578063e985e9c5146104cb578063f2c298be14610508578063fe2c6198146105245761012a565b80636352211e1461033157806370a082311461036e578063721c2edb146103ab57806395d89b41146103d4578063a22cb465146103ff5761012a565b806323b872dd116100f257806323b872dd1461023a57806326449235146102635780632d551432146102a057806342842e0e146102cb578063541e771d146102f45761012a565b806301ffc9a71461012f57806306fdde031461016c578063081812fc14610197578063095ea7b3146101d457806311dd8845146101fd575b600080fd5b34801561013b57600080fd5b5061015660048036038101906101519190612954565b610561565b604051610163919061299c565b60405180910390f35b34801561017857600080fd5b50610181610643565b60405161018e9190612a50565b60405180910390f35b3480156101a357600080fd5b506101be60048036038101906101b99190612aa8565b6106d5565b6040516101cb9190612b16565b60405180910390f35b3480156101e057600080fd5b506101fb60048036038101906101f69190612b5d565b61075a565b005b34801561020957600080fd5b50610224600480360381019061021f9190612c02565b610872565b6040516102319190612a50565b60405180910390f35b34801561024657600080fd5b50610261600480360381019061025c9190612c4f565b610925565b005b34801561026f57600080fd5b5061028a60048036038101906102859190612dd2565b610985565b6040516102979190612b16565b60405180910390f35b3480156102ac57600080fd5b506102b56109ce565b6040516102c29190612a50565b60405180910390f35b3480156102d757600080fd5b506102f260048036038101906102ed9190612c4f565b610a5c565b005b34801561030057600080fd5b5061031b60048036038101906103169190612dd2565b610a7c565b6040516103289190612a50565b60405180910390f35b34801561033d57600080fd5b5061035860048036038101906103539190612aa8565b610b32565b6040516103659190612b16565b60405180910390f35b34801561037a57600080fd5b5061039560048036038101906103909190612e1b565b610be4565b6040516103a29190612e57565b60405180910390f35b3480156103b757600080fd5b506103d260048036038101906103cd9190612e72565b610c9c565b005b3480156103e057600080fd5b506103e9610d4c565b6040516103f69190612a50565b60405180910390f35b34801561040b57600080fd5b5061042660048036038101906104219190612f52565b610dde565b005b34801561043457600080fd5b5061044f600480360381019061044a9190613033565b610df4565b005b34801561045d57600080fd5b5061047860048036038101906104739190612c02565b610e56565b6040516104859190612b16565b60405180910390f35b34801561049a57600080fd5b506104b560048036038101906104b09190612aa8565b610ea1565b6040516104c29190612a50565b60405180910390f35b3480156104d757600080fd5b506104f260048036038101906104ed91906130b6565b610ff3565b6040516104ff919061299c565b60405180910390f35b610522600480360381019061051d9190612c02565b611087565b005b34801561053057600080fd5b5061054b60048036038101906105469190612c02565b611468565b6040516105589190612e57565b60405180910390f35b60007f80ac58cd000000000000000000000000000000000000000000000000000000007bffffffffffffffffffffffffffffffffffffffffffffffffffffffff1916827bffffffffffffffffffffffffffffffffffffffffffffffffffffffff1916148061062c57507f5b5e139f000000000000000000000000000000000000000000000000000000007bffffffffffffffffffffffffffffffffffffffffffffffffffffffff1916827bffffffffffffffffffffffffffffffffffffffffffffffffffffffff1916145b8061063c575061063b826115aa565b5b9050919050565b60606000805461065290613125565b80601f016020809104026020016040519081016040528092919081815260200182805461067e90613125565b80156106cb5780601f106106a0576101008083540402835291602001916106cb565b820191906000526020600020905b8154815290600101906020018083116106ae57829003601f168201915b5050505050905090565b60006106e082611614565b61071f576040517f08c379a0000000000000000000000000000000000000000000000000000000008152600401610716906131c9565b60405180910390fd5b6004600083815260200190815260200160002060009054906101000a900473ffffffffffffffffffffffffffffffffffffffff169050919050565b600061076582610b32565b90508073ffffffffffffffffffffffffffffffffffffffff168373ffffffffffffffffffffffffffffffffffffffff1614156107d6576040517f08c379a00000000000000000000000000000000000000000000000000000000081526004016107cd9061325b565b60405180910390fd5b8073ffffffffffffffffffffffffffffffffffffffff166107f5611680565b73ffffffffffffffffffffffffffffffffffffffff16148061082457506108238161081e611680565b610ff3565b5b610863576040517f08c379a000000000000000000000000000000000000000000000000000000000815260040161085a906132ed565b60405180910390fd5b61086d8383611688565b505050565b6060600c838360405161088692919061333d565b9081526020016040518091039020805461089f90613125565b80601f01602080910402602001604051908101604052809291908181526020018280546108cb90613125565b80156109185780601f106108ed57610100808354040283529160200191610918565b820191906000526020600020905b8154815290600101906020018083116108fb57829003601f168201915b5050505050905092915050565b610936610930611680565b82611741565b610975576040517f08c379a000000000000000000000000000000000000000000000000000000000815260040161096c906133c8565b60405180910390fd5b61098083838361181f565b505050565b600b818051602081018201805184825260208301602085012081835280955050505050506000915054906101000a900473ffffffffffffffffffffffffffffffffffffffff1681565b600880546109db90613125565b80601f0160208091040260200160405190810160405280929190818152602001828054610a0790613125565b8015610a545780601f10610a2957610100808354040283529160200191610a54565b820191906000526020600020905b815481529060010190602001808311610a3757829003601f168201915b505050505081565b610a7783838360405180602001604052806000815250610df4565b505050565b600c818051602081018201805184825260208301602085012081835280955050505050506000915090508054610ab190613125565b80601f0160208091040260200160405190810160405280929190818152602001828054610add90613125565b8015610b2a5780601f10610aff57610100808354040283529160200191610b2a565b820191906000526020600020905b815481529060010190602001808311610b0d57829003601f168201915b505050505081565b6000806002600084815260200190815260200160002060009054906101000a900473ffffffffffffffffffffffffffffffffffffffff169050600073ffffffffffffffffffffffffffffffffffffffff168173ffffffffffffffffffffffffffffffffffffffff161415610bdb576040517f08c379a0000000000000000000000000000000000000000000000000000000008152600401610bd29061345a565b60405180910390fd5b80915050919050565b60008073ffffffffffffffffffffffffffffffffffffffff168273ffffffffffffffffffffffffffffffffffffffff161415610c55576040517f08c379a0000000000000000000000000000000000000000000000000000000008152600401610c4c906134ec565b60405180910390fd5b600360008373ffffffffffffffffffffffffffffffffffffffff1673ffffffffffffffffffffffffffffffffffffffff168152602001908152602001600020549050919050565b3373ffffffffffffffffffffffffffffffffffffffff16600b8787604051610cc592919061333d565b908152602001604051809103902060009054906101000a900473ffffffffffffffffffffffffffffffffffffffff1673ffffffffffffffffffffffffffffffffffffffff1614610d1457600080fd5b8181600c8686604051610d2892919061333d565b90815260200160405180910390209190610d439291906127bf565b50505050505050565b606060018054610d5b90613125565b80601f0160208091040260200160405190810160405280929190818152602001828054610d8790613125565b8015610dd45780601f10610da957610100808354040283529160200191610dd4565b820191906000526020600020905b815481529060010190602001808311610db757829003601f168201915b5050505050905090565b610df0610de9611680565b8383611a86565b5050565b610e05610dff611680565b83611741565b610e44576040517f08c379a0000000000000000000000000000000000000000000000000000000008152600401610e3b906133c8565b60405180910390fd5b610e5084848484611bf3565b50505050565b6000600b8383604051610e6a92919061333d565b908152602001604051809103902060009054906101000a900473ffffffffffffffffffffffffffffffffffffffff16905092915050565b6060610eac82611614565b610eeb576040517f08c379a0000000000000000000000000000000000000000000000000000000008152600401610ee29061357e565b60405180910390fd5b6000600660008481526020019081526020016000208054610f0b90613125565b80601f0160208091040260200160405190810160405280929190818152602001828054610f3790613125565b8015610f845780601f10610f5957610100808354040283529160200191610f84565b820191906000526020600020905b815481529060010190602001808311610f6757829003601f168201915b505050505090506000610f95611c4f565b9050600081511415610fab578192505050610fee565b600082511115610fe0578082604051602001610fc89291906135cf565b60405160208183030381529060405292505050610fee565b610fe984611c66565b925050505b919050565b6000600560008473ffffffffffffffffffffffffffffffffffffffff1673ffffffffffffffffffffffffffffffffffffffff16815260200190815260200160002060008373ffffffffffffffffffffffffffffffffffffffff1673ffffffffffffffffffffffffffffffffffffffff16815260200190815260200160002060009054906101000a900460ff16905092915050565b600073ffffffffffffffffffffffffffffffffffffffff16600b83836040516110b192919061333d565b908152602001604051809103902060009054906101000a900473ffffffffffffffffffffffffffffffffffffffff1673ffffffffffffffffffffffffffffffffffffffff161461110057600080fd5b600061110c8383611468565b905080341015611151576040517f08c379a00000000000000000000000000000000000000000000000000000000081526004016111489061363f565b60405180910390fd5b6000838360086040516020016111699392919061373f565b60405160208183030381529060405290506000600982600a60405160200161119393929190613770565b604051602081830303815290604052905060006111b06007611d0d565b9050600061120187878080601f016020809104026020016040519081016040528093929190818152602001838380828437600081840152601f19601f82011690508083019250505050505050611d1b565b9050600061120e82611ed0565b90506113026040518060600160405280603181526020016142626031913989898080601f016020809104026020016040519081016040528093929190818152602001838380828437600081840152601f19601f820116905080830192505050505050506008805461127e90613125565b80601f01602080910402602001604051908101604052809291908181526020018280546112aa90613125565b80156112f75780601f106112cc576101008083540402835291602001916112f7565b820191906000526020600020905b8154815290600101906020018083116112da57829003601f168201915b505050505086612031565b600061133886611311876120d3565b846040516020016113249392919061391d565b6040516020818303038152906040526120d3565b905060008160405160200161134d91906139c6565b604051602081830303815290604052905061137f6040518060600160405280603981526020016142296039913961226b565b6113be6040518060400160405280600e81526020017f46696e616c20746f6b656e5552490000000000000000000000000000000000008152508261150e565b6113df6040518060600160405280603981526020016142936039913961226b565b6113e93386612304565b6113f38582612322565b33600b8b8b60405161140692919061333d565b908152602001604051809103902060006101000a81548173ffffffffffffffffffffffffffffffffffffffff021916908373ffffffffffffffffffffffffffffffffffffffff16021790555061145c6007612396565b50505050505050505050565b6000806114b884848080601f016020809104026020016040519081016040528093929190818152602001838380828437600081840152601f19601f82011690508083019250505050505050611d1b565b9050600081116114c757600080fd5b60038114156114e1576706f05b59d3b20000915050611508565b60048114156114fb57670429d069189e0000915050611508565b67016345785d8a00009150505b92915050565b6115a682826040516024016115249291906139e8565b6040516020818303038152906040527f4b5c4277000000000000000000000000000000000000000000000000000000007bffffffffffffffffffffffffffffffffffffffffffffffffffffffff19166020820180517bffffffffffffffffffffffffffffffffffffffffffffffffffffffff83818316178352505050506123ac565b5050565b60007f01ffc9a7000000000000000000000000000000000000000000000000000000007bffffffffffffffffffffffffffffffffffffffffffffffffffffffff1916827bffffffffffffffffffffffffffffffffffffffffffffffffffffffff1916149050919050565b60008073ffffffffffffffffffffffffffffffffffffffff166002600084815260200190815260200160002060009054906101000a900473ffffffffffffffffffffffffffffffffffffffff1673ffffffffffffffffffffffffffffffffffffffff1614159050919050565b600033905090565b816004600083815260200190815260200160002060006101000a81548173ffffffffffffffffffffffffffffffffffffffff021916908373ffffffffffffffffffffffffffffffffffffffff160217905550808273ffffffffffffffffffffffffffffffffffffffff166116fb83610b32565b73ffffffffffffffffffffffffffffffffffffffff167f8c5be1e5ebec7d5bd14f71427d1e84f3dd0314c0f7b2291e5b200ac8c7c3b92560405160405180910390a45050565b600061174c82611614565b61178b576040517f08c379a000000000000000000000000000000000000000000000000000000000815260040161178290613a91565b60405180910390fd5b600061179683610b32565b90508073ffffffffffffffffffffffffffffffffffffffff168473ffffffffffffffffffffffffffffffffffffffff16148061180557508373ffffffffffffffffffffffffffffffffffffffff166117ed846106d5565b73ffffffffffffffffffffffffffffffffffffffff16145b8061181657506118158185610ff3565b5b91505092915050565b8273ffffffffffffffffffffffffffffffffffffffff1661183f82610b32565b73ffffffffffffffffffffffffffffffffffffffff1614611895576040517f08c379a000000000000000000000000000000000000000000000000000000000815260040161188c90613b23565b60405180910390fd5b600073ffffffffffffffffffffffffffffffffffffffff168273ffffffffffffffffffffffffffffffffffffffff161415611905576040517f08c379a00000000000000000000000000000000000000000000000000000000081526004016118fc90613bb5565b60405180910390fd5b6119108383836123d5565b61191b600082611688565b6001600360008573ffffffffffffffffffffffffffffffffffffffff1673ffffffffffffffffffffffffffffffffffffffff168152602001908152602001600020600082825461196b9190613c04565b925050819055506001600360008473ffffffffffffffffffffffffffffffffffffffff1673ffffffffffffffffffffffffffffffffffffffff16815260200190815260200160002060008282546119c29190613c38565b92505081905550816002600083815260200190815260200160002060006101000a81548173ffffffffffffffffffffffffffffffffffffffff021916908373ffffffffffffffffffffffffffffffffffffffff160217905550808273ffffffffffffffffffffffffffffffffffffffff168473ffffffffffffffffffffffffffffffffffffffff167fddf252ad1be2c89b69c2b068fc378daa952ba7f163c4a11628f55a4df523b3ef60405160405180910390a4611a818383836123da565b505050565b8173ffffffffffffffffffffffffffffffffffffffff168373ffffffffffffffffffffffffffffffffffffffff161415611af5576040517f08c379a0000000000000000000000000000000000000000000000000000000008152600401611aec90613cda565b60405180910390fd5b80600560008573ffffffffffffffffffffffffffffffffffffffff1673ffffffffffffffffffffffffffffffffffffffff16815260200190815260200160002060008473ffffffffffffffffffffffffffffffffffffffff1673ffffffffffffffffffffffffffffffffffffffff16815260200190815260200160002060006101000a81548160ff0219169083151502179055508173ffffffffffffffffffffffffffffffffffffffff168373ffffffffffffffffffffffffffffffffffffffff167f17307eab39ab6107e8899845ad3d59bd9653f200f220920489ca2b5937696c3183604051611be6919061299c565b60405180910390a3505050565b611bfe84848461181f565b611c0a848484846123df565b611c49576040517f08c379a0000000000000000000000000000000000000000000000000000000008152600401611c4090613d6c565b60405180910390fd5b50505050565b606060405180602001604052806000815250905090565b6060611c7182611614565b611cb0576040517f08c379a0000000000000000000000000000000000000000000000000000000008152600401611ca790613dfe565b60405180910390fd5b6000611cba611c4f565b90506000815111611cda5760405180602001604052806000815250611d05565b80611ce484611ed0565b604051602001611cf59291906135cf565b6040516020818303038152906040525b915050919050565b600081600001549050919050565b60008060008084519050600092505b80821015611ec5576000858381518110611d4757611d46613e1e565b5b602001015160f81c60f81b9050608060f81b817effffffffffffffffffffffffffffffffffffffffffffffffffffffffffffff19161015611d9657600183611d8f9190613c38565b9250611eb1565b60e060f81b817effffffffffffffffffffffffffffffffffffffffffffffffffffffffffffff19161015611dd857600283611dd19190613c38565b9250611eb0565b60f060f81b817effffffffffffffffffffffffffffffffffffffffffffffffffffffffffffff19161015611e1a57600383611e139190613c38565b9250611eaf565b60f8801b817effffffffffffffffffffffffffffffffffffffffffffffffffffffffffffff19161015611e5b57600483611e549190613c38565b9250611eae565b60fc60f81b817effffffffffffffffffffffffffffffffffffffffffffffffffffffffffffff19161015611e9d57600583611e969190613c38565b9250611ead565b600683611eaa9190613c38565b92505b5b5b5b5b508280611ebd90613e4d565b935050611d2a565b829350505050919050565b60606000821415611f18576040518060400160405280600181526020017f3000000000000000000000000000000000000000000000000000000000000000815250905061202c565b600082905060005b60008214611f4a578080611f3390613e4d565b915050600a82611f439190613ec5565b9150611f20565b60008167ffffffffffffffff811115611f6657611f65612ca7565b5b6040519080825280601f01601f191660200182016040528015611f985781602001600182028036833780820191505090505b5090505b6000851461202557600182611fb19190613c04565b9150600a85611fc09190613ef6565b6030611fcc9190613c38565b60f81b818381518110611fe257611fe1613e1e565b5b60200101907effffffffffffffffffffffffffffffffffffffffffffffffffffffffffffff1916908160001a905350600a8561201e9190613ec5565b9450611f9c565b8093505050505b919050565b6120cd8484848460405160240161204b9493929190613f27565b6040516020818303038152906040527f9fd009f5000000000000000000000000000000000000000000000000000000007bffffffffffffffffffffffffffffffffffffffffffffffffffffffff19166020820180517bffffffffffffffffffffffffffffffffffffffffffffffffffffffff83818316178352505050506123ac565b50505050565b606060008251905060008114156120fc5760405180602001604052806000815250915050612266565b6000600360028361210d9190613c38565b6121179190613ec5565b60046121239190613f81565b905060006020826121349190613c38565b67ffffffffffffffff81111561214d5761214c612ca7565b5b6040519080825280601f01601f19166020018201604052801561217f5781602001600182028036833780820191505090505b50905060006040518060600160405280604081526020016142cc604091399050600181016020830160005b868110156122235760038101905062ffffff818a015116603f8160121c168401518060081b905060ff603f83600c1c1686015116810190508060081b905060ff603f8360061c1686015116810190508060081b905060ff603f831686015116810190508060e01b905080845260048401935050506121aa565b50600386066001811461223d576002811461224d57612258565b613d3d60f01b6002830352612258565b603d60f81b60018303525b508484525050819450505050505b919050565b6123018160405160240161227f9190612a50565b6040516020818303038152906040527f41304fac000000000000000000000000000000000000000000000000000000007bffffffffffffffffffffffffffffffffffffffffffffffffffffffff19166020820180517bffffffffffffffffffffffffffffffffffffffffffffffffffffffff83818316178352505050506123ac565b50565b61231e828260405180602001604052806000815250612567565b5050565b61232b82611614565b61236a576040517f08c379a00000000000000000000000000000000000000000000000000000000081526004016123619061404d565b60405180910390fd5b80600660008481526020019081526020016000209080519060200190612391929190612845565b505050565b6001816000016000828254019250508190555050565b60008151905060006a636f6e736f6c652e6c6f679050602083016000808483855afa5050505050565b505050565b505050565b60006124008473ffffffffffffffffffffffffffffffffffffffff166125c2565b1561255a578373ffffffffffffffffffffffffffffffffffffffff1663150b7a02612429611680565b8786866040518563ffffffff1660e01b815260040161244b94939291906140c2565b6020604051808303816000875af192505050801561248757506040513d601f19601f820116820180604052508101906124849190614123565b60015b61250a573d80600081146124b7576040519150601f19603f3d011682016040523d82523d6000602084013e6124bc565b606091505b50600081511415612502576040517f08c379a00000000000000000000000000000000000000000000000000000000081526004016124f990613d6c565b60405180910390fd5b805181602001fd5b63150b7a0260e01b7bffffffffffffffffffffffffffffffffffffffffffffffffffffffff1916817bffffffffffffffffffffffffffffffffffffffffffffffffffffffff19161491505061255f565b600190505b949350505050565b61257183836125e5565b61257e60008484846123df565b6125bd576040517f08c379a00000000000000000000000000000000000000000000000000000000081526004016125b490613d6c565b60405180910390fd5b505050565b6000808273ffffffffffffffffffffffffffffffffffffffff163b119050919050565b600073ffffffffffffffffffffffffffffffffffffffff168273ffffffffffffffffffffffffffffffffffffffff161415612655576040517f08c379a000000000000000000000000000000000000000000000000000000000815260040161264c9061419c565b60405180910390fd5b61265e81611614565b1561269e576040517f08c379a000000000000000000000000000000000000000000000000000000000815260040161269590614208565b60405180910390fd5b6126aa600083836123d5565b6001600360008473ffffffffffffffffffffffffffffffffffffffff1673ffffffffffffffffffffffffffffffffffffffff16815260200190815260200160002060008282546126fa9190613c38565b92505081905550816002600083815260200190815260200160002060006101000a81548173ffffffffffffffffffffffffffffffffffffffff021916908373ffffffffffffffffffffffffffffffffffffffff160217905550808273ffffffffffffffffffffffffffffffffffffffff16600073ffffffffffffffffffffffffffffffffffffffff167fddf252ad1be2c89b69c2b068fc378daa952ba7f163c4a11628f55a4df523b3ef60405160405180910390a46127bb600083836123da565b5050565b8280546127cb90613125565b90600052602060002090601f0160209004810192826127ed5760008555612834565b82601f1061280657803560ff1916838001178555612834565b82800160010185558215612834579182015b82811115612833578235825591602001919060010190612818565b5b50905061284191906128cb565b5090565b82805461285190613125565b90600052602060002090601f01602090048101928261287357600085556128ba565b82601f1061288c57805160ff19168380011785556128ba565b828001600101855582156128ba579182015b828111156128b957825182559160200191906001019061289e565b5b5090506128c791906128cb565b5090565b5b808211156128e45760008160009055506001016128cc565b5090565b6000604051905090565b600080fd5b600080fd5b60007fffffffff0000000000000000000000000000000000000000000000000000000082169050919050565b612931816128fc565b811461293c57600080fd5b50565b60008135905061294e81612928565b92915050565b60006020828403121561296a576129696128f2565b5b60006129788482850161293f565b91505092915050565b60008115159050919050565b61299681612981565b82525050565b60006020820190506129b1600083018461298d565b92915050565b600081519050919050565b600082825260208201905092915050565b60005b838110156129f15780820151818401526020810190506129d6565b83811115612a00576000848401525b50505050565b6000601f19601f8301169050919050565b6000612a22826129b7565b612a2c81856129c2565b9350612a3c8185602086016129d3565b612a4581612a06565b840191505092915050565b60006020820190508181036000830152612a6a8184612a17565b905092915050565b6000819050919050565b612a8581612a72565b8114612a9057600080fd5b50565b600081359050612aa281612a7c565b92915050565b600060208284031215612abe57612abd6128f2565b5b6000612acc84828501612a93565b91505092915050565b600073ffffffffffffffffffffffffffffffffffffffff82169050919050565b6000612b0082612ad5565b9050919050565b612b1081612af5565b82525050565b6000602082019050612b2b6000830184612b07565b92915050565b612b3a81612af5565b8114612b4557600080fd5b50565b600081359050612b5781612b31565b92915050565b60008060408385031215612b7457612b736128f2565b5b6000612b8285828601612b48565b9250506020612b9385828601612a93565b9150509250929050565b600080fd5b600080fd5b600080fd5b60008083601f840112612bc257612bc1612b9d565b5b8235905067ffffffffffffffff811115612bdf57612bde612ba2565b5b602083019150836001820283011115612bfb57612bfa612ba7565b5b9250929050565b60008060208385031215612c1957612c186128f2565b5b600083013567ffffffffffffffff811115612c3757612c366128f7565b5b612c4385828601612bac565b92509250509250929050565b600080600060608486031215612c6857612c676128f2565b5b6000612c7686828701612b48565b9350506020612c8786828701612b48565b9250506040612c9886828701612a93565b9150509250925092565b600080fd5b7f4e487b7100000000000000000000000000000000000000000000000000000000600052604160045260246000fd5b612cdf82612a06565b810181811067ffffffffffffffff82111715612cfe57612cfd612ca7565b5b80604052505050565b6000612d116128e8565b9050612d1d8282612cd6565b919050565b600067ffffffffffffffff821115612d3d57612d3c612ca7565b5b612d4682612a06565b9050602081019050919050565b82818337600083830152505050565b6000612d75612d7084612d22565b612d07565b905082815260208101848484011115612d9157612d90612ca2565b5b612d9c848285612d53565b509392505050565b600082601f830112612db957612db8612b9d565b5b8135612dc9848260208601612d62565b91505092915050565b600060208284031215612de857612de76128f2565b5b600082013567ffffffffffffffff811115612e0657612e056128f7565b5b612e1284828501612da4565b91505092915050565b600060208284031215612e3157612e306128f2565b5b6000612e3f84828501612b48565b91505092915050565b612e5181612a72565b82525050565b6000602082019050612e6c6000830184612e48565b92915050565b60008060008060008060608789031215612e8f57612e8e6128f2565b5b600087013567ffffffffffffffff811115612ead57612eac6128f7565b5b612eb989828a01612bac565b9650965050602087013567ffffffffffffffff811115612edc57612edb6128f7565b5b612ee889828a01612bac565b9450945050604087013567ffffffffffffffff811115612f0b57612f0a6128f7565b5b612f1789828a01612bac565b92509250509295509295509295565b612f2f81612981565b8114612f3a57600080fd5b50565b600081359050612f4c81612f26565b92915050565b60008060408385031215612f6957612f686128f2565b5b6000612f7785828601612b48565b9250506020612f8885828601612f3d565b9150509250929050565b600067ffffffffffffffff821115612fad57612fac612ca7565b5b612fb682612a06565b9050602081019050919050565b6000612fd6612fd184612f92565b612d07565b905082815260208101848484011115612ff257612ff1612ca2565b5b612ffd848285612d53565b509392505050565b600082601f83011261301a57613019612b9d565b5b813561302a848260208601612fc3565b91505092915050565b6000806000806080858703121561304d5761304c6128f2565b5b600061305b87828801612b48565b945050602061306c87828801612b48565b935050604061307d87828801612a93565b925050606085013567ffffffffffffffff81111561309e5761309d6128f7565b5b6130aa87828801613005565b91505092959194509250565b600080604083850312156130cd576130cc6128f2565b5b60006130db85828601612b48565b92505060206130ec85828601612b48565b9150509250929050565b7f4e487b7100000000000000000000000000000000000000000000000000000000600052602260045260246000fd5b6000600282049050600182168061313d57607f821691505b60208210811415613151576131506130f6565b5b50919050565b7f4552433732313a20617070726f76656420717565727920666f72206e6f6e657860008201527f697374656e7420746f6b656e0000000000000000000000000000000000000000602082015250565b60006131b3602c836129c2565b91506131be82613157565b604082019050919050565b600060208201905081810360008301526131e2816131a6565b9050919050565b7f4552433732313a20617070726f76616c20746f2063757272656e74206f776e6560008201527f7200000000000000000000000000000000000000000000000000000000000000602082015250565b60006132456021836129c2565b9150613250826131e9565b604082019050919050565b6000602082019050818103600083015261327481613238565b9050919050565b7f4552433732313a20617070726f76652063616c6c6572206973206e6f74206f7760008201527f6e6572206e6f7220617070726f76656420666f7220616c6c0000000000000000602082015250565b60006132d76038836129c2565b91506132e28261327b565b604082019050919050565b60006020820190508181036000830152613306816132ca565b9050919050565b600081905092915050565b6000613324838561330d565b9350613331838584612d53565b82840190509392505050565b600061334a828486613318565b91508190509392505050565b7f4552433732313a207472616e736665722063616c6c6572206973206e6f74206f60008201527f776e6572206e6f7220617070726f766564000000000000000000000000000000602082015250565b60006133b26031836129c2565b91506133bd82613356565b604082019050919050565b600060208201905081810360008301526133e1816133a5565b9050919050565b7f4552433732313a206f776e657220717565727920666f72206e6f6e657869737460008201527f656e7420746f6b656e0000000000000000000000000000000000000000000000602082015250565b60006134446029836129c2565b915061344f826133e8565b604082019050919050565b6000602082019050818103600083015261347381613437565b9050919050565b7f4552433732313a2062616c616e636520717565727920666f7220746865207a6560008201527f726f206164647265737300000000000000000000000000000000000000000000602082015250565b60006134d6602a836129c2565b91506134e18261347a565b604082019050919050565b60006020820190508181036000830152613505816134c9565b9050919050565b7f45524337323155524953746f726167653a2055524920717565727920666f722060008201527f6e6f6e6578697374656e7420746f6b656e000000000000000000000000000000602082015250565b60006135686031836129c2565b91506135738261350c565b604082019050919050565b600060208201905081810360008301526135978161355b565b9050919050565b60006135a9826129b7565b6135b3818561330d565b93506135c38185602086016129d3565b80840191505092915050565b60006135db828561359e565b91506135e7828461359e565b91508190509392505050565b7f4e6f7420656e6f756768204d6174696320706169640000000000000000000000600082015250565b60006136296015836129c2565b9150613634826135f3565b602082019050919050565b600060208201905081810360008301526136588161361c565b9050919050565b7f2e00000000000000000000000000000000000000000000000000000000000000600082015250565b600061369560018361330d565b91506136a08261365f565b600182019050919050565b60008190508160005260206000209050919050565b600081546136cd81613125565b6136d7818661330d565b945060018216600081146136f2576001811461370357613736565b60ff19831686528186019350613736565b61370c856136ab565b60005b8381101561372e5781548189015260018201915060208101905061370f565b838801955050505b50505092915050565b600061374c828587613318565b915061375782613688565b915061376382846136c0565b9150819050949350505050565b600061377c82866136c0565b9150613788828561359e565b915061379482846136c0565b9150819050949350505050565b7f7b226e616d65223a202200000000000000000000000000000000000000000000600082015250565b60006137d7600a8361330d565b91506137e2826137a1565b600a82019050919050565b7f222c20226465736372697074696f6e223a20224120646f6d61696e206f6e207460008201527f686520353043656e74206e616d652073657276696365222c2022696d6167652260208201527f3a2022646174613a696d6167652f7376672b786d6c3b6261736536342c000000604082015250565b600061386f605d8361330d565b915061387a826137ed565b605d82019050919050565b7f222c226c656e677468223a220000000000000000000000000000000000000000600082015250565b60006138bb600c8361330d565b91506138c682613885565b600c82019050919050565b7f227d000000000000000000000000000000000000000000000000000000000000600082015250565b600061390760028361330d565b9150613912826138d1565b600282019050919050565b6000613928826137ca565b9150613934828661359e565b915061393f82613862565b915061394b828561359e565b9150613956826138ae565b9150613962828461359e565b915061396d826138fa565b9150819050949350505050565b7f646174613a6170706c69636174696f6e2f6a736f6e3b6261736536342c000000600082015250565b60006139b0601d8361330d565b91506139bb8261397a565b601d82019050919050565b60006139d1826139a3565b91506139dd828461359e565b915081905092915050565b60006040820190508181036000830152613a028185612a17565b90508181036020830152613a168184612a17565b90509392505050565b7f4552433732313a206f70657261746f7220717565727920666f72206e6f6e657860008201527f697374656e7420746f6b656e0000000000000000000000000000000000000000602082015250565b6000613a7b602c836129c2565b9150613a8682613a1f565b604082019050919050565b60006020820190508181036000830152613aaa81613a6e565b9050919050565b7f4552433732313a207472616e736665722066726f6d20696e636f72726563742060008201527f6f776e6572000000000000000000000000000000000000000000000000000000602082015250565b6000613b0d6025836129c2565b9150613b1882613ab1565b604082019050919050565b60006020820190508181036000830152613b3c81613b00565b9050919050565b7f4552433732313a207472616e7366657220746f20746865207a65726f2061646460008201527f7265737300000000000000000000000000000000000000000000000000000000602082015250565b6000613b9f6024836129c2565b9150613baa82613b43565b604082019050919050565b60006020820190508181036000830152613bce81613b92565b9050919050565b7f4e487b7100000000000000000000000000000000000000000000000000000000600052601160045260246000fd5b6000613c0f82612a72565b9150613c1a83612a72565b925082821015613c2d57613c2c613bd5565b5b828203905092915050565b6000613c4382612a72565b9150613c4e83612a72565b9250827fffffffffffffffffffffffffffffffffffffffffffffffffffffffffffffffff03821115613c8357613c82613bd5565b5b828201905092915050565b7f4552433732313a20617070726f766520746f2063616c6c657200000000000000600082015250565b6000613cc46019836129c2565b9150613ccf82613c8e565b602082019050919050565b60006020820190508181036000830152613cf381613cb7565b9050919050565b7f4552433732313a207472616e7366657220746f206e6f6e20455243373231526560008201527f63656976657220696d706c656d656e7465720000000000000000000000000000602082015250565b6000613d566032836129c2565b9150613d6182613cfa565b604082019050919050565b60006020820190508181036000830152613d8581613d49565b9050919050565b7f4552433732314d657461646174613a2055524920717565727920666f72206e6f60008201527f6e6578697374656e7420746f6b656e0000000000000000000000000000000000602082015250565b6000613de8602f836129c2565b9150613df382613d8c565b604082019050919050565b60006020820190508181036000830152613e1781613ddb565b9050919050565b7f4e487b7100000000000000000000000000000000000000000000000000000000600052603260045260246000fd5b6000613e5882612a72565b91507fffffffffffffffffffffffffffffffffffffffffffffffffffffffffffffffff821415613e8b57613e8a613bd5565b5b600182019050919050565b7f4e487b7100000000000000000000000000000000000000000000000000000000600052601260045260246000fd5b6000613ed082612a72565b9150613edb83612a72565b925082613eeb57613eea613e96565b5b828204905092915050565b6000613f0182612a72565b9150613f0c83612a72565b925082613f1c57613f1b613e96565b5b828206905092915050565b60006080820190508181036000830152613f418187612a17565b90508181036020830152613f558186612a17565b90508181036040830152613f698185612a17565b9050613f786060830184612e48565b95945050505050565b6000613f8c82612a72565b9150613f9783612a72565b9250817fffffffffffffffffffffffffffffffffffffffffffffffffffffffffffffffff0483118215151615613fd057613fcf613bd5565b5b828202905092915050565b7f45524337323155524953746f726167653a2055524920736574206f66206e6f6e60008201527f6578697374656e7420746f6b656e000000000000000000000000000000000000602082015250565b6000614037602e836129c2565b915061404282613fdb565b604082019050919050565b600060208201905081810360008301526140668161402a565b9050919050565b600081519050919050565b600082825260208201905092915050565b60006140948261406d565b61409e8185614078565b93506140ae8185602086016129d3565b6140b781612a06565b840191505092915050565b60006080820190506140d76000830187612b07565b6140e46020830186612b07565b6140f16040830185612e48565b81810360608301526141038184614089565b905095945050505050565b60008151905061411d81612928565b92915050565b600060208284031215614139576141386128f2565b5b60006141478482850161410e565b91505092915050565b7f4552433732313a206d696e7420746f20746865207a65726f2061646472657373600082015250565b60006141866020836129c2565b915061419182614150565b602082019050919050565b600060208201905081810360008301526141b581614179565b9050919050565b7f4552433732313a20746f6b656e20616c7265616479206d696e74656400000000600082015250565b60006141f2601c836129c2565b91506141fd826141bc565b602082019050919050565b60006020820190508181036000830152614221816141e5565b905091905056fe0a2d2d2d2d2d2d2d2d2d2d2d2d2d2d2d2d2d2d2d2d2d2d2d2d2d2d2d2d2d2d2d2d2d2d2d2d2d2d2d2d2d2d2d2d2d2d2d2d2d2d2d2d2d2d2d2d5265676973746572696e672025732e2573206f6e2074686520636f6e7472616374207769746820746f6b656e49442025642d2d2d2d2d2d2d2d2d2d2d2d2d2d2d2d2d2d2d2d2d2d2d2d2d2d2d2d2d2d2d2d2d2d2d2d2d2d2d2d2d2d2d2d2d2d2d2d2d2d2d2d2d2d2d2d0a4142434445464748494a4b4c4d4e4f505152535455565758595a6162636465666768696a6b6c6d6e6f707172737475767778797a303132333435363738392b2fa264697066735822122063a1d868c32056ada6c9fae33989505f1b6f701bd3e3f6ca6eebfd9ffea7abc964736f6c634300080a00333c73766720786d6c6e733d22687474703a2f2f7777772e77332e6f72672f323030302f737667222077696474683d2232373022206865696768743d22323730222066696c6c3d226e6f6e65223e3c706174682066696c6c3d2275726c282342292220643d224d302030683237307632373048307a222f3e3c646566733e3c66696c7465722069643d22412220636f6c6f722d696e746572706f6c6174696f6e2d66696c746572733d2273524742222066696c746572556e6974733d227573657253706163654f6e55736522206865696768743d22323730222077696474683d22323730223e3c666544726f70536861646f772064783d2230222064793d22312220737464446576696174696f6e3d22322220666c6f6f642d6f7061636974793d222e323235222077696474683d223230302522206865696768743d2232303025222f3e3c2f66696c7465723e3c2f646566733e3c7061746820643d224d37322e3836332034322e393439632d2e3636382d2e3338372d312e3432362d2e35392d322e3139372d2e3539732d312e3532392e3230342d322e3139372e35396c2d31302e30383120362e3033322d362e383520332e3933342d31302e30383120362e303332632d2e3636382e3338372d312e3432362e35392d322e3139372e3539732d312e3532392d2e3230342d322e3139372d2e35396c2d382e3031332d342e37323161342e353220342e35322030203020312d312e3538392d312e363136632d2e3338342d2e3636352d2e3539342d312e3431382d2e3630382d322e313837762d392e3331632d2e3031332d2e3737352e3138352d312e3533382e3537322d322e32303861342e323520342e323520302030203120312e3632352d312e3539356c372e3838342d342e3539632e3636382d2e33383720312e3432362d2e353920322e3139372d2e353973312e3532392e32303420322e3139372e35396c372e38383420342e353961342e353220342e353220302030203120312e35383920312e363136632e3338342e3636352e35393420312e3431382e36303820322e31383776362e3033326c362e38352d342e303635762d362e303332632e3031332d2e3737352d2e3138352d312e3533382d2e3537322d322e32303861342e323520342e32352030203020302d312e3632352d312e3539354c34312e3435362032342e3539632d2e3636382d2e3338372d312e3432362d2e35392d322e3139372d2e3539732d312e3532392e3230342d322e3139372e35396c2d31342e38363420382e36353561342e323520342e32352030203020302d312e36323520312e353935632d2e3338372e36372d2e35383520312e3433342d2e35373220322e3230387631372e343431632d2e3031332e3737352e31383520312e3533382e35373220322e32303861342e323520342e323520302030203020312e36323520312e3539356c31342e38363420382e363535632e3636382e33383720312e3432362e353920322e3139372e353973312e3532392d2e32303420322e3139372d2e35396c31302e3038312d352e39303120362e38352d342e3036352031302e3038312d352e393031632e3636382d2e33383720312e3432362d2e353920322e3139372d2e353973312e3532392e32303420322e3139372e35396c372e38383420342e353961342e353220342e353220302030203120312e35383920312e363136632e3338342e3636352e35393420312e3431382e36303820322e31383776392e333131632e3031332e3737352d2e31383520312e3533382d2e35373220322e32303861342e323520342e32352030203020312d312e36323520312e3539356c2d372e38383420342e373231632d2e3636382e3338372d312e3432362e35392d322e3139372e3539732d312e3532392d2e3230342d322e3139372d2e35396c2d372e3838342d342e353961342e353220342e35322030203020312d312e3538392d312e363136632d2e3338352d2e3636352d2e3539342d312e3431382d2e3630382d322e313837762d362e3033326c2d362e383520342e30363576362e303332632d2e3031332e3737352e31383520312e3533382e35373220322e32303861342e323520342e323520302030203020312e36323520312e3539356c31342e38363420382e363535632e3636382e33383720312e3432362e353920322e3139372e353973312e3532392d2e32303420322e3139372d2e35396c31342e3836342d382e363535632e3635372d2e33393420312e3230342d2e393520312e3538392d312e363136732e3539342d312e3431382e3630392d322e3138375635352e353338632e3031332d2e3737352d2e3138352d312e3533382d2e3537322d322e32303861342e323520342e32352030203020302d312e3632352d312e3539356c2d31342e3939332d382e3738367a222066696c6c3d2223666666222f3e3c646566733e3c6c696e6561724772616469656e742069643d2242222078313d2230222079313d2230222078323d22323730222079323d2232373022206772616469656e74556e6974733d227573657253706163654f6e557365223e3c73746f702073746f702d636f6c6f723d2223636235656565222f3e3c73746f70206f66667365743d2231222073746f702d636f6c6f723d2223306364376534222073746f702d6f7061636974793d222e3939222f3e3c2f6c696e6561724772616469656e743e3c2f646566733e3c7465787420783d2233322e352220793d223233312220666f6e742d73697a653d223237222066696c6c3d2223666666222066696c7465723d2275726c282341292220666f6e742d66616d696c793d22506c7573204a616b617274612053616e732c44656a6156752053616e732c4e6f746f20436f6c6f7220456d6f6a692c4170706c6520436f6c6f7220456d6f6a692c73616e732d73657269662220666f6e742d7765696768743d22626f6c64223e",
    "linkReferences": {},
    "deployedLinkReferences": {}
}